:100000000C945D000C9485000C9485000C94850084
:100010000C9485000C9485000C9485000C9485004C
:100020000C9485000C9485000C9485000C9485003C
:100030000C9485000C9485000C9485000C9485002C
:100040000C944B020C9485000C94BB020C9495020A
:100050000C9485000C9485000C9485000C9485000C
:100060000C9485000C9485000000000024002700FB
:100070002A0000000000250028002B0004040404CE
:100080000404040402020202020203030303030342
:10009000010204081020408001020408102001021F
:1000A00004081020000000080002010000030407FB
:1000B0000000000000000000650411241FBECFEF07
:1000C000D8E0DEBFCDBF11E0A0E0B1E0E8E7F9E0A5
:1000D00002C005900D92A631B107D9F721E0A6E143
:1000E000B1E001C01D92AC3BB207E1F710E0CDE5F5
:1000F000D0E004C02197FE010E94B404CC35D107A2
:10010000C9F70E94ED020C94BA040C94000090E030
:10011000FC01EC55FF4F2491FC01E057FF4F349157
:10012000FC01E458FF4FE491EE23C9F0222339F09B
:10013000233001F1A8F4213019F1223029F1F0E047
:10014000EE0FFF1FEE58FF4FA591B4918FB7F894B3
:10015000EC91611126C030953E233C938FBF0895EA
:100160002730A9F02830C9F0243049F78091800069
:100170008F7D03C0809180008F7780938000DFCFD8
:1001800084B58F7784BDDBCF84B58F7DFBCF809125
:10019000B0008F778093B000D2CF8091B0008F7D78
:1001A000F9CF3E2BDACFCF93DF9390E0FC01E057FD
:1001B000FF4F249184589F4FFC0184918823D1F0F4
:1001C00090E0880F991FFC01E859FF4FA591B49169
:1001D000FC01EE58FF4FC591D49161110EC09FB73D
:1001E000F8948C91E22FE0958E238C932881E22362
:1001F000E8839FBFDF91CF9108958FB7F894EC917A
:10020000E22BEC938FBFF6CF8E3008F08E508770C4
:10021000806480937C0080917A00806480937A006F
:1002200080917A0086FDFCCF8091780090917900D2
:1002300008953FB7F8948091B8019091B901A091C9
:10024000BA01B091BB0126B5A89B05C02F3F19F09C
:100250000196A11DB11D3FBFBA2FA92F982F882746
:10026000BC01CD01620F711D811D911D42E0660F21
:10027000771F881F991F4A95D1F70895AF92BF92B3
:10028000CF92DF92EF92FF920F931F93CF93DF9362
:100290006C017B018B01040F151FEB015E01AE1891
:1002A000BF08C017D10759F06991D601ED91FC91B3
:1002B0000190F081E02DC6010995892B79F7C501E0
:1002C000DF91CF911F910F91FF90EF90DF90CF9032
:1002D000BF90AF900895FC01538D448D252F30E0E1
:1002E000842F90E0821B930B541710F0CF96089543
:1002F00001970895FC01918D828D981761F0A28D70
:10030000AE0FBF2FB11D5D968C91928D9F5F9F7335
:10031000928F90E008958FEF9FEF0895FC01918DEB
:10032000828D981731F0828DE80FF11D858D90E058
:1003300008958FEF9FEF0895FC01918D228D892FF5
:1003400090E0805C9F4F821B91098F7399270895DD
:1003500086E191E00E949C0121E0892B09F420E0D4
:10036000822F089580E090E0892B29F00E94A80157
:1003700081110C9400000895FC01A48DA80FB92FE1
:10038000B11DA35ABF4F2C91848D90E001968F73BD
:100390009927848FA689B7892C93A089B1898C91DC
:1003A000837080648C93938D848D981306C002882B
:1003B000F389E02D80818F7D80830895EF92FF92F5
:1003C0000F931F93CF93DF93EC0181E0888F9B8D78
:1003D0008C8D98131AC0E889F989808185FF15C032
:1003E0009FB7F894EE89FF896083E889F989808155
:1003F0008370806480839FBF81E090E0DF91CF9124
:100400001F910F91FF90EF900895F62E0B8D10E045
:100410000F5F1F4F0F731127E02E8C8D8E110CC0B4
:100420000FB607FCFACFE889F989808185FFF5CFFF
:10043000CE010E94BC01F1CFEB8DEC0FFD2FF11D21
:10044000E35AFF4FF0829FB7F8940B8FEA89FB893C
:1004500080818062CFCFCF93DF93EC01888D88239A
:10046000B9F0AA89BB89E889F9898C9185FD03C017
:10047000808186FD0DC00FB607FCF7CF8C9185FFFC
:10048000F2CF808185FFEDCFCE010E94BC01E9CF84
:10049000DF91CF9108951F920F920FB60F92112402
:1004A0002F933F938F939F93AF93BF938091B4010A
:1004B0009091B501A091B601B091B7013091B3010F
:1004C00023E0230F2D3758F50196A11DB11D209370
:1004D000B3018093B4019093B501A093B601B0939A
:1004E000B7018091B8019091B901A091BA01B09182
:1004F000BB010196A11DB11D8093B8019093B90174
:10050000A093BA01B093BB01BF91AF919F918F911E
:100510003F912F910F900FBE0F901F90189526E8D6
:10052000230F0296A11DB11DD2CF1F920F920FB6BD
:100530000F9211242F933F934F935F936F937F9369
:100540008F939F93AF93BF93EF93FF9386E191E0D7
:100550000E94BC01FF91EF91BF91AF919F918F914C
:100560007F916F915F914F913F912F910F900FBEAF
:100570000F901F9018951F920F920FB60F92112493
:100580002F938F939F93EF93FF93E0912601F09128
:1005900027018081E0912C01F0912D0182FD1BC08B
:1005A000908180912F018F5F8F732091300182178E
:1005B00041F0E0912F01F0E0EA5EFE4F958F8093CD
:1005C0002F01FF91EF919F918F912F910F900FBE6F
:1005D0000F901F9018958081F4CFCF93DF93CDB704
:1005E000DEB7A1970FB6F894DEBF0FBECDBF7894EB
:1005F00084B5826084BD84B5816084BD85B5826028
:1006000085BD85B5816085BD80916E0081608093D8
:100610006E00109281008091810082608093810041
:100620008091810081608093810080918000816051
:10063000809380008091B10084608093B1008091AC
:10064000B00081608093B00080917A0084608093D4
:100650007A0080917A00826080937A0080917A009B
:10066000816080937A0080917A00806880937A001C
:100670001092C10061E083E00E94D30060E08FE04F
:100680000E94D300E0912601F091270182E080834F
:10069000E0912201F09123011082E0912401F09178
:1006A00025018FEC808310922E01E0912A01F091B8
:1006B0002B0186E08083E0912801F091290180815F
:1006C00080618083E0912801F09129018081886018
:1006D0008083E0912801F0912901808180688083E6
:1006E000E0912801F091290180818F7D808327EAA4
:1006F000222E20E0322E3AE0432E512C612C712C18
:1007000000E010E08FE00E94040197FD03967C0159
:10071000F594E794F594E79461E083E00E94D300B8
:10072000E114F10409F073C060E083E00E948700E7
:100730008FE00E9404016C01990FEE08FF08F7FE9C
:10074000AEC06DE286E191E00E94DE0122273327F0
:10075000A9012C193D094E095F0919A2CE01819604
:100760007C01CA01B901A30192010E949204605D5B
:10077000F70162937F01211531054105510589F784
:10078000E114F10461F001900020E9F73197AF0125
:100790004E195F09B70186E191E00E943E0142E0F7
:1007A00050E062E171E086E191E00E943E010E942A
:1007B00019014B015C0182E3C82ED12CE12CF12CF4
:1007C0000E941901681979098A099B09683E7340DA
:1007D00081059105A8F3F1E0CF1AD108E108F108ED
:1007E00028EE820E23E0921EA11CB11CC114D1047C
:1007F000E104F10429F70115110509F483CF0E94E2
:10080000A801882309F47ECF0E9400007BCF2FEF40
:10081000E216F10411F461E088CFF1018491833094
:1008200021F148F48130B9F08230D1F0F0E8EF16D0
:10083000F1048CF779CF873011F1883041F18430A1
:10084000A9F780918000806280938000F0928B00F5
:10085000E0928A006DCF84B5806884BDE7BC68CF24
:1008600084B5806284BDE8BC63CF809180008068DD
:1008700080938000F0928900E092880059CF8091A7
:10088000B00080688093B000E092B30051CF8091B7
:10089000B00080628093B000E092B40049CFA7011D
:1008A000960119A2CE0181967C01CA01B901A3016A
:1008B00092010E949204605DF70162937F0121150D
:1008C00031054105510589F75BCFE6E1F1E013827F
:1008D000128288EE93E0A0E0B0E084839583A68343
:1008E000B78384E091E09183808385EC90E09587E5
:1008F000848784EC90E09787868780EC90E0918BEA
:10090000808B81EC90E0938B828B82EC90E0958BD6
:10091000848B86EC90E0978B868B118E128E138ED3
:10092000148E0895A1E21A2EAA1BBB1BFD010DC057
:10093000AA1FBB1FEE1FFF1FA217B307E407F5078F
:1009400020F0A21BB30BE40BF50B661F771F881F6B
:10095000991F1A9469F760957095809590959B0101
:10096000AC01BD01CF010895EE0FFF1F0590F4917A
:08097000E02D0994F894FFCF7B
:1009780000000000DE013E016B012B029C017A01A0
:060988008E010D0A0000C3
:00000001FF
